:10000000FDC2000019C300000C94E60815C30000EF
:1000100013C3000011C300000FC300000DC3000094
:100020000BC3000009C300000C94510D0C94770E13
:1000300003C3000001C30000FFC20000FDC20000B6
:10004000FBC200000C942A09F7C20000F5C20000B0
:10005000F3C200000C94DE0AEFC20000EDC2000003
:10006000EBC20000E9C20000E7C20000E5C20000E8
:10007000E3C20000E1C200000C949214DDC2000053
:1000800081C50000D9C20000D7C20000D5C200005F
:10009000D3C20000D1C2000000291E1F202122234C
:1000A000242526272D2E2A2B141A0815171C180C68
:1000B00012132F3028E0041607090A0B0D0E0F3318
:1000C0003435E1311D1B0619051110363738E55559
:1000D000E22C393A3B3C3D3E3F4041424353475F6F
:1000E0006061565C5D5E57595A5B6263C2BE644490
:1000F0004567B0B28CB7B8B9BABBBCBD68696A6BAA
:100100006C6D6E6F707172C188B1B387B4B5739343
:10011000928ABF8BB68985C00142003E3C3A3B457E
:100120006843413F3D2B356769E2E188E0141EB02A
:100130006AB11D16041A1FB26B061B070821208C1A
:100140006C2C1909171522B76D11050B0A1C23B861
:100150006EB3100D182425B96F360E0C122726BA6F
:100160007037380F33132DBB718734B42F2EBC7208
:1001700039E52830B531BD73BE6493928ABF2A8BAE
:10018000B659895C5F85C0C162635A5D5E60295360
:1001900044575B565561470000000040C200000014
:1001A00000000000000000000000000000F9E60070
:1001B00000E4E90000FF000000000000E3FEF000A2
:1001C000EC000000E7FD0000F700000065FC00EF18
:1001D00000EB000066FB00FAEA000000A9F800004E
:1001E0000000000000F600540000E80000F50000E8
:1001F0000000000000000058000000AA00000000FD
:100200000000000000004D00504A000000494C5121
:10021000004F52000000004E00464B4801BF00BB9B
:10022000B9B7B83A68C0BEBCBA2B353B69E0E164E7
:1002300039141E3C6AE21D16041A1F3D6B061B078B
:100240000821203E6C2C19091715223F6D11050B52
:100250000A1C23406EE6100D182425416F360E0C43
:10026000122726427037380F33132D4371873432EB
:100270002F2E4472E4E52830318945735150935252
:100280004C4D2A49B6594F5C5F4E4A4B62635A5DEA
:100290005E602953B2575B5655614700000000BDB0
:1002A000C20A4D6F64653A2041542F5053320A0AF6
:1002B000000A4D6F64653A2050432F58540A0A00D3
:1002C000756E6B6E6F776E00322028657874656E80
:1002D0006465642900436F6465205365743A2000A7
:1002E0004B6579626F6172642049443A20000001D5
:1002F0000000580312000200006A0374002200008C
:10030000DE0312002100007C030900220100F0033B
:100310001500210100950309002202000504C60012
:10032000210200AE030900220300CB041C002103BC
:1003300000C7030900030000E7040401030904EBFC
:10034000040E02030904FB043801C10601C12601A1
:10035000C12601C13601C036120100020000002092
:10036000C0167D04000101020001090274000401AD
:1003700000A032090400000103010100092111015C
:100380000001221200070581030800010904010091
:1003900001030000000921110100012215000705D9
:1003A0008303200001090402000103000000092169
:1003B0001101000122C6000705820317000109048C
:1003C00003000203000000092111010001221C00AA
:1003D00007058403400002070505034000080501E6
:1003E0000906A101150026FF00950875088103C0C4
:1003F0000631FF0974A1537508150026FF009520EA
:1004000009758102C005010906A1018501750195E3
:1004100008050719E029E7150025018102950575F2
:1004200001050819012905910295017503910375CC
:100430000195310507190129311500250181029522
:100440000175018103750195720507193329A415FA
:100450000025018102950475018103C00501098011
:10046000A1018502750195031981298315002501D4
:100470008102950575018103C0050C0901A1018563
:10048000037501951809B509B609B709CD09E2093F
:10049000E509E709E909EA0A52010A53010A540188
:1004A0000A55010A83010A8A010A92010A94010A83
:1004B00021020A23020A24020A25020A26020A2726
:1004C000020A2A02150025018102C00699FF0A6866
:1004D00024A1017508150026FF009540090181023D
:1004E000954009029102C0040309040E0353006FF2
:1004F0000061007200650072000000380353006F55
:100500000061007200650072002700730020004B3C
:10051000006500790062006F0061007200640020D5
:100520000043006F006E0076006500720074006585
:100530000072000000616C6C6F63206F6B2E0A000C
:10054000616C6C6F63206661696C65642E0A006182
:100550006C6C6F63206661696C65642E0A00746F51
:1005600074616C5F6D6163726F733A20006D6178C6
:100570005F6C617965723A20006C617965726465BF
:1005800066733A2000216170706C790A006C656EA8
:100590003C350A000A0A72656D61696E696E673AD8
:1005A00020006572726F7220006572726F72200097
:1005B0006572726F72200021696420002173657476
:1005C00020002173656C65637420006D6163726F38
:1005D00073200072656D61707320006C61796572C3
:1005E00073200003010001010A020101040000055B
:1005F00000200700000600100800000011241FBEA4
:10060000CFEFD0E2DEBFCDBF11E0A0E0B1E0EEEF72
:10061000F7E300E00BBF02C007900D92A032B107D4
:10062000D9F713E0A0E2B1E001C01D92AB3AB107E7
:10063000E1F784D00C94FD1BE3CC90910001923043
:1006400021F1933018F4913041F505C0933059F001
:10065000943019F510C087FD20C0E82FF0E0E8566F
:10066000FF4F849108958538C0F4E82FF0E0E45EF0
:10067000FD4F84910895662341F08F3770F4E82F81
:10068000F0E0E356FE4F84910895853830F4E82F6A
:10069000F0E0E85EFE4F8491089580E008950E94A6
:1006A000FE190E94081A1092220110922301109242
:1006B00024010895C2DF0C940B1ABFDF0C942A1A90
:1006C000CF92DF92EF92FF920F931F93CF93DF931E
:1006D0009AD2082F80912601802739F1C0E0D0E01E
:1006E0001BEAC82EDD24E02EFF24C6010C2E02C01A
:1006F000959587950A94E2F780FF10C0C7010C2EEC
:1007000002C0959587950A94E2F780FF04C0812F77
:100710000E940B1A03C0812F0E942A1A21961F5F84
:10072000103B19F70093260181E0DF91CF911F91D3
:100730000F91FF90EF90DF90CF9008952F923F920E
:100740004F925F926F927F928F929F92AF92BF92E1
:10075000CF92DF92EF92FF920F931F93DF93CF938D
:1007600000D00F92CDB7DEB780E880936100109281
:100770006100569A8AB188638AB98BB1877C8BB93C
:100780008BB188638BB9D1D60E94FA194ED520D28D
:1007900086DF80E060D25524AA24BB247724CC24B1
:1007A000DD24760124E0622E92E0492E83E0282E9B
:1007B000312C2C0E3D1E5520A1F42FB7F8948091BA
:1007C000360190913701A0913801B09139012FBFC6
:1007D000855F9140A040B04020F081E03CD255249C
:1007E0005394AA2009F0E6C02FB7F89480913601FF
:1007F00090913701A0913801B09139012FBF895BE9
:100800009B40A040B04008F4D5C00E94A815982F86
:100810009F7099F082958F7059F4909300019130F8
:1008200019F44092290161C081E0809329015DC0E3
:10083000809329019093000158C0109200011092FA
:100840002101109220018EEE62E344D5823009F03E
:1008500040C082E3EAD581E08093290180910001C4
:10086000882309F03BC082EF62E334D5182F823031
:10087000A9F582E3DAD58A3F89F5CE01029662E3D3
:100880007AD5823019F5C10162E375D59A8182303B
:10089000B1F49B3A31F48B81853819F060920001F4
:1008A00003C083E080930001992E88248B8190E01F
:1008B0008829992990932101809320010FC060928B
:1008C0000001909320011092210108C010930001B3
:1008D00005C04092290181E0809300015E988091DB
:1008E0000001882311F46092000160912001709151
:1008F0002101809100010E947A150E94FD168091CD
:100900002901823011F4D5D1DAD1809100018330F0
:1009100011F488EFDDD58BB1877C8BB98FB7F89454
:10092000C0903601D0903701E0903801F090390145
:100930008FBF8AE00E9451118AE00E94511180EE1F
:1009400092E00E946D1180912001909121010E94FE
:1009500065118AE00E94511185ED92E00E946D11AF
:1009600080910001823061F0833018F4813089F485
:1009700005C0833049F0843061F408C081E301C0D0
:1009800082E30E94511109C083E3FBCF88EC92E01F
:1009900002C080EC92E00E946D11809129018230AA
:1009A00019F481EB92E002C081EA92E00E946D119D
:1009B000AA24A394CE01019660E0DDD4AA2009F414
:1009C000C1C0823008F485C0823009F06DC0198141
:1009D00080910001813069F41F3F09F44EC017FF78
:1009E00005C0812F8F7760E065DE64C0812F60E0F5
:1009F00013C090912401992309F1E92FF0E0EF5FF2
:100A0000FE4F8081181799F4E92FEF5FE0932401DE
:100A1000E33021F48EE761E050DE4CC0E83009F0AD
:100A200049C08EE761E046DE1092240143C0933056
:100A300018F08EE761E03EDE10922401103E91F046
:100A4000113E28F41123C9F01A3AE1F433C0103FE3
:100A500029F01C3F79F0113EA9F408C081E0809391
:100A6000220128C081E08093230124C081E080938B
:100A7000240120C080E197E203C011DE88E893E101
:100A80004ED518C080912201882339F0812F6091C2
:100A9000230110DE1092220104C0812F60912301F6
:100AA0000CDE1092230106C08EEF62E313D4BB2448
:100AB000B39401C0BB248FB7F894C0903601D09096
:100AC0003701E0903801F09039018FBF772473949B
:100AD00055C0882309F052C0BB2009F04FC00E94C6
:100AE000F719082F80912501081709F447C0102F26
:100AF000110F612F6670802F869586958170682B07
:100B00008DEEADD42BB1802F86958170902F94708F
:100B1000892B1270812B880F880F880F277C822BDE
:100B20008BB9009325012AC08FB7F894C090360185
:100B3000D0903701E0903801F09039018FBF7724D1
:100B4000739402C07720B9F02FB7F89480913601E2
:100B500090913701A0913801B09139012FBF8C19C4
:100B60009D09AE09BF09C397A105B10520F08AE030
:100B70000E94511177240E94B5171DCEA1DD882354
:100B800099F6E0CF1F920F920FB60F9211248F9318
:100B90009F9393B19F7180912801981729F09093AA
:100BA00028018AE08093090180910901882349F096
:100BB000815080930901882321F48091280180933A
:100BC00027019F918F910F900FBE0F901F90189546
:100BD00084B1807E84B985B18F6185B9E1E7F0E0A9
:100BE0008081826080838AEF90E090939900809367
:100BF000980010929000E1E9F0E088E08083808125
:100C00008360808308958091270108959C018091DD
:100C10008100887F8093810080916F008D7F809319
:100C20006F00109285001092840082E086BB21152F
:100C3000310581F0220F331F309389002093880003
:100C400080916F00826080936F008091810082604C
:100C5000809381000895882319F027982F9A08958A
:100C60002F98279A0895882319F05098589A089534
:100C70005898509A0895382F4DB3E998000088236A
:100C800019F05198599A02C0519A599824E189B1A2
:100C900090E0969587958170831711F02150B9F7F0
:100CA00082E08CBB41FF02C0E99A01C0E9988DB394
:100CB0000895F894E99882E08CBB78940895F894AC
:100CC000E9E6F0E080818C608083E99A7894089569
:100CD000882321F0809111018093120189B190E065
:100CE00096958795982F9170809112018F3F21F4EE
:100CF00081E089278093120180911201813089F06F
:100D0000813018F08E3FB9F419C09923C9F08AE5F3
:100D100090E07CDF8EEF8093110181E080931201DF
:100D20000AC0992369F488EE93E070DF8FEF809317
:100D300011011092120191E0892F089592E001C0F3
:100D400094E08FEF80931201F7CF1F9319B11170C8
:100D5000882321F080910A0180930B0180910B017F
:100D60008230E1F0833018F48130D1F505C0833052
:100D700071F18E3FA9F54CC08EEF80930A0180EB94
:100D800094E044DF10922D0110922C01112311F4F4
:100D900016E03FC082E080930B0122C01795112717
:100DA000179580912C018695182B10932C0180911A
:100DB0002D018F5F80932D01883091F413E0109303
:100DC0000A0188E790E022DF10930B0109C080E060
:100DD00090E01CDF80912C0180932A0112E019C061
:100DE00011E02DB73EB7809113019091140128179F
:100DF000390720F43093140120931301113081F04E
:100E0000123019F088EB9BE08AD310932B0108C0B5
:100E100015E080E090E0FADE81E080930B01E1CF05
:100E20001F9108950F931F93982F80910E018F3F6C
:100E300019F482E080930E01992321F080910D0135
:100E400080930E0180910E01873009F461C08830D3
:100E500088F4843009F43FC0853030F48230F1F0FA
:100E6000833009F06BC02DC08530B9F1863009F0B0
:100E700065C04CC08A3009F456C08B3038F48830D5
:100E800009F44BC0893009F059C049C08B3009F4CE
:100E90004EC08E3F09F052C015E06EC080912E0109
:100EA00080932F0188E08093300181E080930C01D2
:100EB00083E080930D0184E690E0A8DE80E0DBDE35
:100EC0003DC080E0D0DE81E0D6DE8EEF80930D0164
:100ED00080E699E09BDE85E027C010912F01012F6D
:100EE0000170802FC0DE169510932F0180910C01A8
:100EF000802780930C0180913001815080933001D4
:100F0000882311F084E010C086E00EC087E00CC09A
:100F100080910C01A8DE88E007C089E005C081E06F
:100F2000A2DE8AE001C08BE080930E0107C080E062
:100F300090E06CDE489B1FC019E01EC089B1209173
:100F40000E0130E02170307090E0969587958170A9
:100F500090702817390711F411E009C081E083DE91
:100F60008FEF80930E0188EB9BE0D9D214E0812FA4
:100F70001F910F91089512E081E075DE8FEF80934D
:100F80000E01F5CFFF920F931F93F9B099B188230B
:100F900029F08FEF8093100115E08AC08091100135
:100FA0008F3F19F481E080931001092F0170109197
:100FB00010011630E9F1173040F41430D9F0153033
:100FC000D8F4113009F050C008C01830D9F11830E9
:100FD00088F1193009F048C037C080EB94E016DE84
:100FE000109232011092310110930F01002309F089
:100FF00064C01CC085E017C0902F979599279795DE
:10100000809131018695982B9093310180910F0149
:10101000802780930F01809132018F5F809332018E
:10102000883021F486E0809310011EC084E0FBCF5D
:1010300087E0F9CF80910F01801711F017E03EC0D3
:1010400088E0F1CF89E0EFCF002349F080913101B2
:1010500080932A0181E08093290112E02FC088EB60
:101060009BE05DD218E02AC02091100130E0217091
:1010700030708F2D90E0969587958170907028172D
:10108000390711F411E007C08FEF8093100188EB4E
:101090009BE045D214E02DB73EB7809113019091AB
:1010A00014012817390720F43093140120931301F9
:1010B000812F1F910F91FF90089516E080E090E03E
:1010C000A5DD8FEF80931001E6CFDF92EF92FF92C4
:1010D0000F931F93082F8230F9F4809129018230F9
:1010E00021F483E0809333016BC08091350181301E
:1010F00079F483E08093350180913301882319F0DE
:1011000088EB9BE00CD281E08093330100E004C0C7
:1011100081E08093340154C0FF24F394A2E0DA2EDE
:10112000F3E0EF2E80913501813031F1813030F0E4
:10113000823081F1833009F043C039C0802FC8DD8F
:10114000823008F43DC0823069F7809134018823F1
:1011500079F01092340180913301882319F088EBE3
:101160009BE0DDD1F0923301E092350100E0DACF6F
:1011700081E08093350124C049991FC080913301DB
:10118000882319F088EB9BE0CAD1F0922B01D09212
:101190003501C8CF802FF6DE182F823088F08230DC
:1011A00019F088EB9BE0BBD110932B0106C0802F78
:1011B00039DE823028F08093330110923501B2CFAE
:1011C0001F910F91FF90EF90DF9008951F920F9263
:1011D0000FB60F920BB60F9211242F933F934F939C
:1011E0005F936F937F938F939F93AF93BF93EF938F
:1011F000FF9380912901823019F480E0A6DD02C0BE
:1012000080E063DFFF91EF91BF91AF919F918F914C
:101210007F916F915F914F913F912F910F900BBEF6
:101220000F900FBE0F901F901895F89481E023DD6A
:1012300081E019DD1092800088E080938100E9E66A
:10124000F0E08081837F84608083E99A80E03DDFE5
:10125000789408951F920F920FB60F920BB60F92CB
:1012600011242F933F934F935F936F937F938F93AB
:101270009F93AF93BF93EF93FF9380918100887FFB
:101280008093810080916F008D7F80936F000000BC
:10129000109285001092840082E086BB8091290123
:1012A000823019F481E051DD02C081E00EDFFF9150
:1012B000EF91BF91AF919F918F917F916F915F91CE
:1012C0004F913F912F910F900BBE0F900FBE0F903B
:1012D0001F901895DF92EF92FF920F931F93182F94
:1012E000D62E80912901823011F480E03EC087E73C
:1012F000D8D7812FE0D780E2D4D7F89410932E016D
:101300001092330182E0E1DE78948FB7F894E09098
:101310003601F090370100913801109139018FBFEB
:101320004D2D50E060E070E018C0DD20B1F02FB727
:10133000F8948091360190913701A0913801B091D5
:1013400039012FBF8E199F09A00BB10B4817590700
:101350006A077B0710F485E008C080913301823072
:1013600020F380913301109233011F910F91FF9070
:10137000EF90DF900895DF92EF92FF920F931F930B
:10138000CF93DF93EC018FB7F894E0903601F090A3
:10139000370100913801109139018FBFD0902B0196
:1013A0006623C1F41FC02FB7F89480913601909145
:1013B0003701A0913801B09139012FBF8E199F09D3
:1013C000A00BB10B481759076A077B0728F1D0908B
:1013D0002B0104C0462F50E060E070E081E08D15E5
:1013E00010F703C081E08D15B8F410912A01109216
:1013F0002B0182E0D81651F482E753D7812F5BD7B7
:1014000080E24FD7209741F0188306C082E549D784
:101410008D2D51D780E245D78D2DDF91CF911F9132
:101420000F91FF90EF90DF9008951F93DF93CF937C
:101430000F92CDB7DEB7682FCE0101969CDF182F33
:10144000823039F0198282E52CD781E32AD7812FA7
:1014500032D789810F90CF91DF911F910895EF923C
:10146000FF920F931F93E82EF62E80912901823070
:1014700049F103E08E2D62E32DDF182F8230D1F485
:1014800082E3D3DF182F8A3F69F48F2D62E322DFD6
:10149000182F823059F482E3C8DF182F8A3F11F4E5
:1014A00081E011C081E2FDD681E207C087E5F9D66F
:1014B00082E303C087E5F5D681E3F3D6812FFBD61F
:1014C0000150C1F680E01F910F91FF90EF900895B9
:1014D000FF920F931F93F82E809129018230D1F053
:1014E00003E08F2D62E3F6DE182F823059F482E399
:1014F0009CDF182F8A3F11F481E00DC081E2D1D624
:1015000081E203C087E5CDD680E3CBD6812FD3D649
:10151000015039F780E01F910F91FF90089590934B
:101520003B0180933A015E9A0895EEE6F0E08081F7
:10153000826080838AEF87BD82E084BD15BC85B55B
:10154000836085BD08952091150130911601211504
:10155000310521F42DB73EB720523040809117015C
:1015600090911801281B390BC9010895AC012091F5
:101570001501309116012115310521F42DB73EB723
:10158000205230408091170190911801281B390B8F
:101590002417350718F420E030E007C0480F591F22
:1015A00050931801409317019C01C90108958BEADB
:1015B00093E0909318018093170108951F920F9262
:1015C0000FB60F920BB60F9211242F933F934F93A8
:1015D0005F936F937F938F939F93AF93BF93EF939B
:1015E000FF938091360190913701A0913801B0911D
:1015F00039010196A11DB11D8093360190933701E9
:10160000A0933801B093390180913A0190913B0148
:10161000009731F0019790933B0180933A0101C00C
:101620005E9880913C01882341F481E080933C01E5
:1016300078940E94941A10923C01FF91EF91BF910F
:10164000AF919F918F917F916F915F914F913F915A
:101650002F910F900BBE0F900FBE0F901F901895FB
:101660001092490110924A0110924B0110924C01C4
:1016700010924D0110924E01E2E5F1E0119281E0ED
:10168000ED36F807D9F7109240018FE00895E8DFB2
:1016900081E88093D70080EA8093D80086E189BDF5
:1016A00009B400FEFDCF80E98093D8001092E000DD
:1016B0001092420110923D0110923E0110923F01A2
:1016C0008DE28093E2007894089580913F01882311
:1016D00061F080913E01882341F48091E0008260B6
:1016E0008093E00081E080933E010895582F382FC9
:1016F0003150343A10F040E014C0E32FE695E695FF
:10170000E695F0E0EE5AFE4F232F277081E090E03F
:1017100002C0880F991F2A95E2F72081282B208389
:1017200043E0852F885A8330A0F4E52FE695E695AF
:10173000E695F0E0EE5AFE4F252F277081E090E00D
:1017400002C0880F991F2A95E2F72081282B208359
:101750004460852F885E8831A8F4252F2853E22F16
:10176000E695E695E695F0E0EE5AFE4F277081E0AB
:1017700090E002C0880F991F2A95E2F72081282B5C
:1017800020834860252F205E283080F481E090E09F
:1017900002C0880F991F2A95E2F7982F882331F00D
:1017A00080914001892B8093400115C0343AD0F4D8
:1017B000E9E4F1E080818517A9F0319681E0EF340A
:1017C000F807C1F720E030E0F901E75BFE4F8081C8
:1017D000882319F45083436005C02F5F3F4F2630A4
:1017E000310591F7842F0895482F282F2150243A4E
:1017F00010F030E014C0E22FE695E695E695F0E0B3
:10180000EE5AFE4F277081E090E002C0880F991FCA
:101810002A95E2F7809520818223808333E0842F0C
:10182000885A8330A8F4E42FE695E695E695F0E033
:10183000EE5AFE4F242F277081E090E002C0880FFF
:10184000991F2A95E2F78095208182238083346056
:10185000842F885E8831B0F4242F2853E22FE69538
:10186000E695E695F0E0EE5AFE4F277081E090E0B5
:1018700002C0880F991F2A95E2F780952081822364
:1018800080833860242F205E283050F481E090E07F
:1018900002C0880F991F2A95E2F7982F882319F420
:1018A000E9E4F1E008C0909580914001892380939C
:1018B000400133600AC08081841711F410823360C4
:1018C000319681E0EF34F807B1F7832F0895982F10
:1018D00080914201882309F492C090FF2EC02FB757
:1018E000F89481E08093E9008091E80085FF24C0AE
:1018F000809140018093F1001092F10080914901A4
:101900008093F10080914A018093F10080914B0116
:101910008093F10080914C018093F10080914D0102
:101920008093F10080914E018093F1008AE38093CF
:10193000E800109248019E7F2FBF80911D018130E9
:1019400009F05CC091FF20C02FB7F89482E080932B
:10195000E9008091E80085FF16C081E08093F100E6
:10196000809140018093F100E2E5F1E08191809364
:10197000F10081E0E736F807C9F78AE38093E800D1
:10198000109245019D7F2FBF92FF16C03FB7F8947C
:1019900022E02093E9008091E80085FF0CC02093AD
:1019A000F100809167018093F1008AE38093E80061
:1019B000109246019B7F3FBF93FF21C02FB7F89441
:1019C00082E08093E9008091E80085FF15C083E004
:1019D0008093F100809168018093F100809169010A
:1019E0008093F10080916A018093F1008AE38093F3
:1019F000E80010924701977F2FBF01C0917F892F88
:101A00000895482F80914201882309F448C08091AD
:101A10003D01882309F043C080913E01882309F0ED
:101A20003EC02FB7F89483E08093E9008091510184
:101A3000882341F08091E80085FD02C02FBF12C0CD
:101A4000109251019091E4009C5F33E08091E80096
:101A500085FD13C02FBF8091E400891729F481E030
:101A6000809351018FEF0895809142018823B9F04E
:101A70002FB7F8943093E900E9CF4093F1008091BB
:101A8000E80085FD06C08AE38093E80010924F01CC
:101A900003C082E080934F012FBF80E008958FEF55
:101AA00008951F920F920FB60F920BB60F9211244A
:101AB0002F938F939F93EF93FF938091E100109268
:101AC000E100282F83FF17C01092E90081E0809386
:101AD000EB001092EC0092E29093ED0098E090936E
:101AE000F0001092420110923F0110923D011092BD
:101AF0003E0180931D0120FF08C08091E2008061BB
:101B00008093E20081E080933D0124FF0BC080912F
:101B10003D01882339F08091E2008F7E8093E200BE
:101B200010923D0125FF02C010923E0122FFD3C05A
:101B300080914201882309F4CEC080914F0188230F
:101B400091F0815080934F01882369F483E0809362
:101B5000E90002C01092F1008091E80085FDFACF03
:101B60008AE38093E80080914401882319F0815032
:101B70008093440180914301882319F08150809320
:101B80004301809150018F5F8093500190E08370FA
:101B90009070892B09F09FC090911C01992389F1C5
:101BA00081E08093E9008091E80085FF2AC0809160
:101BB00048018F5F80934801891718F110924801FE
:101BC000809140018093F1001092F10080914901D1
:101BD0008093F10080914A018093F10080914B0144
:101BE0008093F10080914C018093F10080914D0130
:101BF0008093F10080914E018093F1008AE38093FD
:101C0000E80080911D01882309F465C082E080937B
:101C1000E90090911901992301F18091E80085FF75
:101C20001CC0809145018F5F809345018917A8F002
:101C30001092450181E08093F100809140018093F2
:101C4000F100E2E5F1E081918093F10081E0E73677
:101C5000F807C9F78AE38093E80090911A01992365
:101C6000B9F08091E80085FF13C0809146018F5F35
:101C700080934601891760F01092460182E08093BC
:101C8000F100809167018093F1008AE38093E8007E
:101C900090911B019923F9F08091E80085FF1BC00A
:101CA000809147018F5F809347018917A0F01092C0
:101CB000470183E08093F100809168018093F100F7
:101CC000809169018093F10080916A018093F10015
:101CD0008AE38093E800FF91EF919F918F912F917C
:101CE0000F900BBE0F900FBE0F901F9018951F9274
:101CF0000F920FB60F920BB60F9211242F933F93B2
:101D00004F935F936F937F938F939F93AF93BF9303
:101D1000CF93DF93EF93FF931092E9008091E80057
:101D200083FF4BC26091F1003091F1008091F1008E
:101D3000482F50E02091F100922F80E0482B592B42
:101D40008091F100A82FB0E02091F100922F80E067
:101D5000A82BB92B8091F100C82FD0E02091F10081
:101D6000922F80E0C82BD92B82EF8093E800363089
:101D700009F056C025EF32E0B90165507040F90115
:101D800037978591949184179507E1F4FB0185912C
:101D900094918A179B07B1F49B012E5F3F4FF90185
:101DA000659174912E5F3F4FF9012491CE01CF3F91
:101DB000D10519F010F08FEF90E0422F821758F400
:101DC000482F09C0295F3F4F695F7F4FF3E02035FF
:101DD0003F07A9F6F2C15EEF8091E800282F30E0BE
:101DE000C90185709070892BB9F322FDE9C1342FA8
:101DF000413208F030E2232FCB0106C0FC010196EE
:101E0000E491E093F10021502223C1F7630F711D8B
:101E1000431B5093E8004423F9F63032E9F2D0C175
:101E2000862F8F7709F05BC0353061F48EEF809399
:101E3000E8008091E80080FFFCCF842F80688093C9
:101E4000E300BEC1393019F5409342018EEF809313
:101E5000E80089E493E021E02093E900FC01019689
:101E6000E491E093EB00EE2369F0AC014F5F5F4F2C
:101E7000FC0184918093EC00CA010196FA0134912F
:101E80003093ED002F5F263039F78EE164C0383093
:101E900039F48091E80080FFFCCF809142010AC1B3
:101EA000332341F48091E80080FFFCCF80913F0113
:101EB000880F2BC0313019F0333009F07EC141302A
:101EC000510509F07AC18EEF8093E800313019F4A2
:101ED00010923F0175C181E080933F0171C1823052
:101EE00009F03EC03323B1F48091E80080FFFCCFBD
:101EF000A093E9008091EB0090E025E0969587950E
:101F00002A95E1F781701092E9008093F100109218
:101F1000F1004FC1313019F0333009F04EC1452B7B
:101F200009F04BC12A2F2F77822F8150853008F07E
:101F300044C18EEF8093E8002093E900333009F428
:101F40003CC189E18093EB0081E090E002C0880F02
:101F5000991F2A95E2F78093EA001092EA0030C1B7
:101F6000813209F02AC1A230B10509F06CC0E42F1A
:101F7000313069F58091E80080FFFCCFE13081F4D9
:101F8000E093F100809140018093F100E2E5F1E0FF
:101F900081918093F10081E0E736F807C9F709C124
:101FA000E23029F4E093F1008091670183C0E330CF
:101FB00009F0FFC0E093F100809168018093F10087
:101FC000809169018093F10080916A0173C039307A
:101FD00039F48091E80082FFFCCF8091F10073C05A
:101FE000323071F48091E80080FFFCCFEE2329F0BD
:101FF000F0E0E85EFE4F80815DC0809119015AC01B
:102000003A3009F0DAC0442371F0A42FB0E0119700
:10201000FD01E75EFE4F5083552309F0CAC0AB5B5C
:10202000BE4F1C92C6C05093190150931A01509391
:102030001B01552309F0BDC01092450110924601C5
:1020400010924701B6C0109709F055C0313009F51C
:102050008091E80080FFFCCF809140018093F100E7
:102060001092F100809149018093F10080914A0122
:102070008093F10080914B018093F10080914C019D
:102080008093F10080914D018093F10080914E0189
:1020900011C0323039F48091E80080FFFCCF80918C
:1020A0001C0108C0333049F48091E80080FFFCCF68
:1020B00080911D018093F1007CC0393061F48091E2
:1020C000E80082FFFCCF8091F100809341018BEF0B
:1020D0008093E8006EC03A3041F450931C015523C0
:1020E00009F067C01092480164C03B3009F065C038
:1020F00040931D015EC0A130B10519F5313009F0E2
:102100005CC04C2F5EEF8091E800282F30E0C901C1
:1021100085709070892BB9F322FD52C0942F413203
:1021200008F090E2892F03C01092F10081508823BB
:10213000D9F7491B5093E800442329F7903219F34B
:102140003FC01397D1F5313001F540E45EEF809147
:10215000E800282F30E0C90185709070892BB9F311
:1021600022FD2EC0942F413208F090E2892F03C047
:102170001092F10081508823D9F7491B5093E80051
:10218000442329F7903219F31BC03930B1F490E49D
:102190002BEF8091E80082FFFCCF2093E800892F8D
:1021A000913208F080E2981BA1F78091E80080FF4F
:1021B000FCCF8EEF8093E80003C081E28093EB00B8
:1021C000FF91EF91DF91CF91BF91AF919F918F914F
:1021D0007F916F915F914F913F912F910F900BBE27
:1021E0000F900FBE0F901F901895FC018091420137
:1021F000882339F12FB7F8946093440185E08093E8
:10220000E90095E08091E80085FF02C090E40EC0EF
:102210002FBF809144018823A9F080914201882337
:1022200081F02FB7F8949093E900ECCF8091F10002
:1022300081939150D9F78BE68093E8002FBF80E41B
:1022400008958FEF0895FC0180914201882339F1B0
:102250002FB7F8946093430184E08093E90094E001
:102260008091E80085FF02C090E40EC02FBF8091EE
:1022700043018823A9F080914201882381F02FB780
:10228000F8949093E900ECCF81918093F100915004
:10229000D9F78AE38093E8002FBF80E408958FEF99
:1022A0000895AFCB0895982F8A3010F087E301C0CE
:1022B00080E3890FA6CB1F93182F82958F70F3DFD1
:1022C000812F8F70F0DF1F9108951F93182F892F92
:1022D000F2DF812FF0DF1F9108951F93CF93DF93DB
:1022E000EC01FE0121961491112339F01A3011F4FA
:1022F0008DE087DB812F85DBF4CFDF91CF911F91BC
:102300000895382F20917001E0916D01F0916E01D8
:1023100090E009C0DF0180813296831719F411968D
:102320008C9108959F5F9217A8F380E008950F9312
:102330001F93CF93DF93182F062F8091730188236B
:10234000B1F1662349F0E0917501F0917601E10F5A
:10235000F11D809174018083C12FD0E0E09175015F
:10236000F0917601EC0FFD1F8081CBDF282F8823B1
:10237000F1F0809173018217D0F081E090E0821B30
:102380009109880F991FE0917101F0917201E81B8A
:10239000F90B0190F081E02DEC0FFD1F8081882367
:1023A00011F0E82F09C0C656DE4FE88105C0E12FC5
:1023B000F0E0E656FE4FE0812E2F30E0C901887F25
:1023C0009070803D9105D9F4409174012770307070
:1023D000002349F081E090E002C0880F991F2A9500
:1023E000E2F7482B09C081E090E002C0880F991FF6
:1023F0002A95E2F78095482340937401E0E08E2F00
:10240000DF91CF911F910F91089510926F0110925B
:1024100070011092730110926E0110926D01109272
:102420007201109271011092760110927501089557
:10243000ECDF80E08150E82FF0E0E656FE4F80832D
:102440008823C1F70895382F2091700180916F0182
:10245000281778F4822F90E0880F991FE0916D0182
:10246000F0916E01E80FF91F308361832F5F209395
:102470007001089510927401809175019091760118
:10248000892B59F080E08150E0917501F09176013F
:10249000E80FF11D10828823B1F70895AF92BF9223
:1024A000CF92DF92EF92FF920F93DF93CF9300D002
:1024B000CDB7DEB75C01E62E80917301841770F111
:1024C000442329F46AE9C62E61E0D62E0EC081E0CD
:1024D00090E0841B9109880F991FE0917101F091A0
:1024E0007201E81BF90BC080D18000E015C0C50166
:1024F00001969A838983C5010E94E21BF82EE2E0CF
:10250000F0E0AE0EBF1E89819A810E94E21BF601A7
:10251000EF0DF11D80830F5F0E1548F30F900F90A4
:10252000CF91DF910F91FF90EF90DF90CF90BF9010
:10253000AF900895EF92FF920F931F93CF93DF9385
:10254000E82EF62E662309F450C080E091E00ED804
:1025500090937601809375018DDFCF2DD0E00E2D05
:1025600010E0CE019695982F8827979587958C0F28
:102570009D1F800F911F880F991F0E94B60A9C0112
:1025800090936E0180936D01009711F480E02EC04E
:10259000E0926F01F0927301C801880F991F820FBA
:1025A000931F90937201809371019E01220F331F3C
:1025B000280F391F90E040E050E015C0E091710114
:1025C000F0917201E40FF51F3183208380E0815088
:1025D000F901E80FF11D10828823C9F720503F4F01
:1025E0009F5F4E5F5F4F9F1548F381E0DF91CF9172
:1025F0001F910F91FF90EF90089581E080937C01EF
:10260000089510927C010895582F40917B01E0912C
:102610007801F091790130E014C08081851779F458
:1026200081812281922F90959823962392959F7075
:10263000692B8627822319F42381348106C03F5FEA
:102640003596341750F320E030E0C9010895109218
:102650007C0110927A0110927B0180917801909117
:102660007901892B21F01092790110927801089557
:10267000EECF08951092770180919A0290919B027B
:10268000892B59F080E08150E0919A02F0919B02F1
:10269000E80FF11D10828823B1F708957F928F9281
:1026A0009F92AF92BF92CF92DF92EF92FF920F93E1
:1026B0001F93CF93DF93862E90907A01C09178017B
:1026C000D0917901AA2425E0722E3DC0B0907B0103
:1026D000B914D9F1B79C70011124EC0EFD1E8C01C8
:1026E0000F5F1F4F0E94E21BF7018083680108946F
:1026F000C11CD11CC8010E94E21BF7018183860125
:102700000F5F1F4FC6010E94E21BF70182831483F3
:10271000038378010894E11CF11CC8010E94E21BAC
:10272000182FC7010E94E21B8F731F73810F880F40
:102730000894E11CF11C9701280F311DC901B394C5
:10274000B0927B01A394A81408F2DF91CF911F915E
:102750000F91FF90EF90DF90CF90BF90AF909F9040
:102760008F907F9008951F93182F662349F080E083
:1027700091E00E94B60A90939B0280939A027ADFBE
:1027800085E0189FC00111240E94B60A9093790138
:1027900080937801009711F480E005C010937A01CE
:1027A00010927B0181E01F910895BF92CF92DF923A
:1027B000EF92FF920F931F93CF93DF93C62EB42E09
:1027C0008C010F5F1F4FFED7F82EE8012196C8013C
:1027D000F9D7D82E8F2D8F73BB2011F0E82E1BC098
:1027E0004FE3E42EED2090E0880F991FC80FD91F0A
:1027F000D7FE11C084E86C2D57D60DC08E010F5F37
:102800001F4FCE01DFD7F82E2296C801DBD7682FE5
:102810008F2D4AD6EA94EE2089F7BB2029F4D7FE03
:1028200003C088E060E040D6DF91CF911F910F9107
:10283000FF90EF90DF90CF90BF900895FF920F939D
:102840001F93082FF62E10917701E0919A02F091D4
:102850009B02309761F0662319F0E80FF11D108399
:10286000E0919A02F0919B02E00FF11D108180919E
:102870007C01882351F0802F612FC6DE009729F05C
:10288000612F4F2D92DF51E001C050E0202F30E04A
:10289000C901887F9070803E9105D1F44091770105
:1028A00027703070FF2049F081E090E002C0880F6F
:1028B000991F2A95E2F7482B09C081E090E002C0F9
:1028C000880F991F2A95E2F7809548234093770156
:1028D000852F1F910F91FF90089580917D0190E0C9
:1028E000882309F491E0892F08959C0151E05093C9
:1028F0009F0280917D01882311F08FEF0895F99B4D
:1029000002C08EEF089570939D0260939C023093F5
:10291000A1022093A00240939E0250937D01FB9A56
:1029200080E008951F920F920FB60F920BB60F9290
:1029300011242F933F934F935F936F937F938F93C4
:102940009F93AF93BF93EF93FF9380919E02882351
:1029500029F180919F02882391F180919C029091AE
:102960009D0230D724C080919E02815080939E02A8
:102970008091A0029091A10201969093A102809370
:10298000A00280919C0290919D02019690939D02DD
:1029900080939C0280919E02882321F4FB981092E0
:1029A0007D0132C080919C0290919D020BD7982F9F
:1029B000E091A002F091A10280819817A1F280918C
:1029C0009C0290919D0292BD81BDE091A002F09188
:1029D000A102808180BDFA9AF99A80919E0281506D
:1029E00080939E028091A0029091A1020196909303
:1029F000A1028093A00280919C0290919D02019679
:102A000090939D0280939C02FF91EF91BF91AF91B3
:102A10009F918F917F916F915F914F913F912F91F6
:102A20000F900BBE0F900FBE0F901F901895E2E015
:102A3000F0E089E080935700849183FD5AC0F894B8
:102A400081E08093E00080E28093D8001092C9007A
:102A500080E29EE40197F1F71DBA109268001CBC59
:102A600010BE1FBA10927A0010926E0010926F0082
:102A700010927000109271001092C9001092BC0068
:102A800011B814B817B81AB81DB810BA12B815B8DA
:102A900018B81BB81EB811BAE3E0F0E089E08093E3
:102AA000570084918670869593E0892720E034E072
:102AB00002C0220F331F8A95E2F788E020303807E2
:102AC00091F088E02130380720F42050344089F418
:102AD00008C080E12030380741F02050304249F4EE
:102AE00006C00C9400FE0C9400FC0C9400F80C94AE
:102AF00000F00895809382017093840160938301B4
:102B00000895282F285D69F081E090E002C0880FC9
:102B1000991F2A95E2F720911F01282720931F0172
:102B2000089581E080931F0108951F9380E090E055
:102B300049D6182F81E090E045D620E093E498270D
:102B400083E58127982B09F421E0822F1F910895B6
:102B5000ECDF882389F082E090E03CD69C0100976E
:102B600059F0275F3F4044F484E090E02BD6813059
:102B700019F486E090E026C680E00895EF92FF9277
:102B80000F931F93CF93DF93E62E142F00E020C006
:102B9000153010F1EC012496039614D6F82ECE01D0
:102BA00011D6982F9F7329F0809181018F5F8093B8
:102BB00081012F2D2F73290F220F412F45504217CE
:102BC00058F0CE010196820F911D142F121B0F5F3A
:102BD0000E15F0F281E001C080E0DF91CF911F91EE
:102BE0000F91FF90EF90089583E090E060E0F7D5BB
:102BF00082E090E060E0F3D581E090E063E4EFD51F
:102C000080E090E063E5EBC590DF882309F4ECCF2A
:102C10000895AF92BF92DF92EF92FF920F931F93AE
:102C2000CF93DF93E62ED42EEC012196CE01CAD5A8
:102C3000082F182F1770DD2081F4113041F011306A
:102C400018F0123051F406C08BED95E005C083ED0D
:102C500095E002C08BEC95E040DB402F50E02091E6
:102C60001F0130E0CA0188739070E3E09595879565
:102C7000EA95E1F702C0359527958A95E2F720FDA0
:102C800006C0DD2009F0AEC082EC95E02FC0219691
:102C90007EEFF72EFE0C06FF19C0CE0193D590E013
:102CA0002091820130E02150304002C095958795F7
:102CB0002A95E2F780FD06C0DD2009F093C08CEB79
:102CC00095E014C021966DEFF62EFE0C07FF13C0A1
:102CD000CE0180D520918301309184018217930722
:102CE00039F0DD2009F07EC087EB95E0F6DA7AC096
:102CF00022962EEFF20E113009F43BC0113020F075
:102D0000123009F068C052C0CE015CD5482FA82E01
:102D1000BB249501220F331FFA948F2D90E02817C2
:102D2000390719F080EB95E055C0DD2029F480913A
:102D30007E01840F80937E01219600E010E015C093
:102D4000CE0140D5F82ECE0101963CD5682FDD206E
:102D500019F08F2D78DB06C080917F01861710F463
:102D600060937F0122960F5F1F4F0A151B0544F3E6
:102D700039C08E010F5F1F4FCE0124D5E82EC80148
:102D800021D5682F90E0880F991F2EEFF20E2F2D7E
:102D900030E08217930719F089EA95E01BC0DD2027
:102DA00009F1C80101964E2D79DB1CC08E010F5F21
:102DB0001F4FCE0107D5E82EDD2021F0C8016E2D72
:102DC0006DDC10C0C8016E2D4F2DD8DE882329F48C
:102DD00082EA95E082DA80E006C0809180018E0D63
:102DE0008093800181E0DF91CF911F910F91FF903F
:102DF000EF90DF90BF90AF900895EF92FF920F9306
:102E00001F93CF93DF9334DC13DB0E94D70A109219
:102E10007E0110927F01109280011092810185DE67
:102E2000882309F49AC082E090E0D4D48C01FCEFAE
:102E3000EF2EFFEFFF2EE80EF91E84E995E04DDA44
:102E4000C70143DA8AE02DDA05501040065F1F40C3
:102E500008F083C084E090E0B5D4813009F07DC0F3
:102E600085E090E0AFD4823008F077C0C8E0D0E0D1
:102E700020C0CE01A7D4182F1EDA80E412DACE01CA
:102E800024DA80E20EDA153018F48DE895E042C0BD
:102E9000CE01612F40E0BDDE882319F485E895E07E
:102EA00039C08AE0FED9812F90E0C80FD91FE81AF7
:102EB000F90A1E141F04ECF289E795E00EDA8091FE
:102EC0007E01F9D98AE0EDD98DE695E006DA8091A8
:102ED0007F01F1D98AE0E5D98EE595E0FED98091B0
:102EE0008001E9D98AE0DDD980917E0160917F017E
:102EF00021DB882319F48FE495E00CC080918001D8
:102F00006091810130DC882339F47FDA0E94D70A8E
:102F100080E495E0E2D921C085E395E0DED982E046
:102F200090E058D48C0104501040C8E0D0E00FC0AD
:102F3000CE0148D4F82ECE016F2D41E06ADE882301
:102F400061F08F2D90E0C80FD91F081B190B1016C8
:102F5000110674F352DB81E001C080E0DF91CF9174
:102F60001F910F91FF90EF900895CF92DF92EF9213
:102F7000FF920F931F93CF93DF93C090890123E0BB
:102F8000C21609F413C12C1540F081E0C81609F4EB
:102F9000DAC08C1508F4DDC00CC0E5E0CE1609F4EB
:102FA00051C1CE1608F440C1F6E0CF1609F0ACC10D
:102FB00089C183EA92E060E018D918160CF0B6C017
:102FC0001091A302123009F43BC0133020F41130E9
:102FD00009F0ACC007C0133009F463C0143009F025
:102FE000A5C089C0E3EEF5E0A3EAB2E084918D9339
:102FF000319625E0EC3FF207C9F782E090E0EAD392
:10300000EC01009759F084E090E0DCD3182F85E0C4
:1030100090E0D8D31093AD028093AE028827992711
:103020008C1B9D0B8450904F8093B9029093BA02F1
:103030000E94A30A8093B3029093B40282E02AC054
:103040003091A50220E08091A40290E0822B932B86
:1030500090938B0180938A01875F9F40D0F484E036
:1030600090E090938D0180938C0110928F011092CB
:103070008E018EE891E062E070E042E036DC882369
:1030800041F41093A20282EA92E060E0DCD8B9DA5F
:103090005EC081E08093A20282EA92E060E0D3D831
:1030A00045C082E090E090938D0180938C018AE886
:1030B00091E062E070E042E050E074D320918A0138
:1030C00030918B01FFE0273F3F0718F780918C017B
:1030D00090918D01029690938D0180938C012093A5
:1030E000A3023093A40282E08093A20282EA92E0DB
:1030F00060E0A9D8E5C08FB7F894209136013091EF
:10310000370140913801509139018FBF20939001D0
:1031100030939101409392015093930182E0809308
:10312000A20282EA92E060E08ED8E8C090911F018E
:1031300080911E01981709F4E4C05FDE80911F01A1
:1031400080931E01DEC0C9DB882309F04EC081E0F8
:10315000D9C083EA92E060E048D818160CF04CC061
:103160008091A302823809F057C01091A402212F48
:1031700030E080918A0190918B018217930708F4C7
:103180004BC060918C0170918D0187EA92E0412FD4
:10319000ACDB882309F040C01093940182E0809357
:1031A000A20282EA92E060E04ED803C096DB882358
:1031B00011F483E0A7C0C0918C01D0918D01D09013
:1031C0009401A7EAEA2EA2E0FA2E8E0109C0C801F6
:1031D000F9D2F70191917F018917F1F40F5F1F4F29
:1031E000802F8C1B8D1598F3BDC083E08093A202C5
:1031F00082EA92E060E027D882E084C02450304028
:1032000030938F0120938E018EE891E062E070E0B0
:1032100042E06BDB882359F081E08093A20282EACE
:1032200092E060E010D86DC058DB882311F484E090
:1032300069C084E08093A20282EA92E060E003D851
:10324000DCDD5FC083EA92E060E00E94F5101816B2
:10325000BCF58091A302833031F0843009F451C071
:10326000813071F54EC000918A0110918B010115DA
:10327000110531F10134110508F000E410E060910E
:103280008C0170918D0183EA92E0A8018BD283EAD0
:1032900092E060E00E94231180918A0190918B015D
:1032A000801B910B90938B0180938A0180918C01FC
:1032B00090918D01800F911F90938D0180938C01CF
:1032C00085E020C08FB7F894209136013091370106
:1032D00040913801509139018FBF809190019091B8
:1032E0009101A0919201B0919301281B390B4A0BD7
:1032F0005B0B295E33404040504010F486E002C032
:1033000096DB80E0809389018FB7F8942091360195
:103310003091370140913801509139018FBF809130
:103320008901882311F08C1549F020938501309391
:10333000860140938701509388012AC080918501BE
:1033400090918601A0918701B0918801281B390BCB
:103350004A0B5B0B2958334140405040C8F0109253
:10336000890116C02D2D30E080918A0190918B014A
:10337000821B930B90938B0180938A012C0F3D1F2E
:1033800030938D0120938C01892B09F02ECF36CFFD
:10339000DF91CF911F910F91FF90EF90DF90CF9031
:1033A0000895982F977021E030E001C0220F9A9580
:1033B000EAF786958695869590E0662351F0FC01A4
:1033C000ED51FD4F9081822F892379F4292B2083A1
:1033D0000895FC01ED51FD4F9081822F892329F042
:1033E00020952923208380E0089581E0089580912D
:1033F000410108950E94470B07DC1AC8E3EEF2E092
:10340000119283E0E330F807D9F734D833D987C075
:103410008BE060E049C01F93182F60E0C2DF882373
:10342000B9F48DE20E945111812F0E945B1180E25C
:103430000E945111812F60E00E949711182F88235C
:1034400039F060E0FBD9882319F483E0612F2CD098
:103450001F9108951F93182F61E0A3DF8823B9F40B
:103460008BE20E945111812F0E945B1180E20E9429
:103470005111812F61E00E949711182F882339F094
:1034800061E0DCD9882319F482E0612F0DD01F910F
:1034900008958091960190E0019720919501821BFB
:1034A000910960E570E057C10F931F93082F162F05
:1034B000F0DF8823B1F08091950190E0FC01EE0FE0
:1034C000FF1FE55FFC4F412F50E0302F20E0422BE3
:1034D000532B51834083019660E570E03CD180938B
:1034E00095011F910F9108959091960180919501FA
:1034F000891719F4E0E0F0E010C0892F90E0FC019A
:10350000EE0FFF1FE55FFC4F0190F081E02D01966B
:1035100060E570E020D180939601CF0108958091FD
:1035200095018093960108950F931F9380913D011B
:10353000882321F480913E01882391F080913E01FF
:10354000882309F005C19091950180919601981703
:1035500009F4FEC00E94650B8AE080939801F8C0D0
:1035600080919801882361F081508093980188238D
:1035700009F0EEC043DF0E94300B80939901E8C050
:10358000E0919601809195018E1719F4E0E0F0E04A
:1035900008C0F0E0EE0FFF1FE55FFC4F0190F081E7
:1035A000E02D8F01F7FF0FC090919701983050F4F4
:1035B000E92FF0E0ED5FFC4F8091400180839F5F39
:1035C000909397011F77113091F11A3009F490C050
:1035D0008BDF163009F46AC0173090F4133009F409
:1035E0004AC0143030F4113011F1123009F09CC08F
:1035F0002EC0143009F453C0153009F095C052C0E4
:10360000193009F468C01A3038F4173009F453C07F
:10361000183009F089C053C01B3039F01B3008F452
:1036200067C01C3009F080C079C010E079C0E0911B
:103630009601809195018E1751F0F0E0EE0FFF1F7B
:10364000E55FFC4F802F90E0936091838083802F13
:10365000887F883D19F4802F54DA66C084E60E9482
:103660005111802F0E945B1180E20E945111802F26
:103670000E94760B11C0802F887F883D09F454C0CA
:1036800085E70E945111802F0E945B1180E20E9409
:103690005111802F0E94F40B982F10E047C0009327
:1036A000400123C080914001802B1DC00095809176
:1036B0004001802318C080914001802714C0E09110
:1036C0009701EE2389F1E150E0939701F0E0ED5F7F
:1036D000FC4F808108C080919701882329F11092C6
:1036E0009701809103038093400110E093E01EC096
:1036F000902F915089F0E0919601809195018E175D
:1037000099F0F0E0EE0FFF1FE55FFC4F892F90E08E
:103710009A609183808308C0E7DE06C06FDE11E007
:103720000E94300B982F02C010E090E08091990128
:10373000892B80939901882321F00E94670C809344
:103740009901112329F080E29EE40197F1F76FD9E6
:103750001F910F91089597FB092E07260AD077FD38
:1037600004D00CD006D000201AF4709561957F4FDC
:103770000895F6F7909581959F4F0895AA1BBB1B5E
:1037800051E107C0AA1FBB1FA617B70710F0A61B61
:10379000B70B881F991F5A95A9F780959095BC0182
:1037A000CD010895DC01CB01FC01F999FECF06C0E3
:1037B000F2BDE1BDF89A319600B40D9241505040EF
:1037C000B8F70895F999FECF92BD81BDF89A99276F
:1037D00080B50895A8E1B0E042E050E0E5CF262FA3
:1037E000F999FECF1FBA92BD81BD20BD0FB6F894E6
:0E37F000FA9AF99A0FBE01960895F894FFCF49
:1037FE0004E11477E1F014F0770AFE0101FFFF01F6
:10380E00FFFFFFFF7F0000AB037D7D7D7D0101018A
:00000001FF
